:020000040800F2
:10000000F807002035020008194000083F3F0008AB
:1000100015400008F72600082142000800000000F3
:10002000000000000000000000000000494000083F
:10003000FB260008000000001D4000084B4000089F
:100040004F0200084F0200084F0200084F0200084C
:100050004F0200084F0200084F0200084F0200083C
:100060004F0200084F0200084F0200084F0200082C
:100070004F0200084F0200084F0200084F0200081C
:100080004F0200084F0200084F0200084F0200080C
:100090004F0200084F0200084F0200084F020008FC
:1000A0004F0200084F0200084F0200084F020008EC
:1000B000A54000084F0200084F0200084F02000848
:1000C0004F0200084F0200084F0200084F020008CC
:1000D0004F0200084F0200084F0200084F020008BC
:1000E0004F0200084F0200084F02000800F002F81B
:1000F00000F090F80AA090E8000C82448344AAF132
:100100000107DA4501D100F085F8AFF2090EBAE82F
:100110000F0013F0010F18BFFB1A43F0010318473B
:10012000A4430000C4430000103A24BF78C878C13B
:10013000FAD8520724BF30C830C144BF04680C60ED
:10014000704700000023002400250026103A28BF35
:1001500078C1FBD8520728BF30C148BF0B60704739
:100160006E2900F09781702900F0D982662904F089
:10017000D780652904F0D480672904F0D1806129F3
:1001800004F0D08003681B0A28BF41F08001692970
:1001900000F04481642900F04181752900F03E811E
:1001A0006F2900F06682782900F0A582E92900F025
:1001B0000182E42900F0FE81F52900F0FB81EF299E
:1001C00000F06382F82900F0A4820368DB0928BFED
:1001D00041F08001632900F0A787732900F0AC8704
:1001E000E32900F0B787F32900F0BC8700207047AF
:1001F0001FB501F009F804000020002104F07AF88E
:10020000401C60600020002104F05EF8E0601FBD2B
:1002100010B510BD00F0CAFF1146FFF7E9FF04F06A
:1002200039F801F0A7F803B4FFF7F2FF03BC01F0BF
:10023000EFF800000948804709480047FEE7FEE75D
:10024000FEE7FEE7FEE7FEE7FEE7FEE7FEE7FEE786
:1002500004480549054A064B70470000A1400008C4
:10026000ED000008F8010020F8070020F803002046
:10027000F8030020B2F120030AD5C2F1200320FACE
:1002800002F001FA03F321FA02F140EA0300704799
:1002900021FA03F04FF00001704700001CB50C4636
:1002A000064B7B4469460090204600F00CF904465A
:1002B0000020694600F01AF920461CBD47020000E4
:1002C0004FF000020429C0F0128010F0030C00F07F
:1002D0001B80CCF1040CBCF1020F18BF00F8012BFD
:1002E000A8BF20F8022BA1EB0C0100F00DB85FEACB
:1002F000C17C24BF00F8012B00F8012B48BF00F897
:10030000012B70474FF0000200B513469446964605
:10031000203922BFA0E80C50A0E80C50B1F1200118
:10032000BFF4F7AF090728BFA0E80C5048BF0CC0C6
:100330005DF804EB890028BF40F8042B08BF704724
:1003400048BF20F8022B11F0804F18BF00F8012B96
:10035000704770477047704770B5044685690068FC
:10036000C10601D5302600E02026C00707D070BDA9
:10037000D4E9012130469047206A401C20626D1E5E
:10038000F6D570BD70B5044685690078C00707D101
:1003900070BDD4E9012120209047206A401C2062D2
:1003A0006D1EF6D570BD09684A0501D540B270478B
:1003B000C905FCD500B2704709684A0501D5C0B22D
:1003C0007047C905FCD580B2704770B50C4605462C
:1003D000012A05D02878800600D5EA69002302E0CA
:1003E000012305E05B1C934202D2E05C0028F9D1B6
:1003F000A869E618C01AA861286A18442862284625
:10040000FFF7AAFF04E0D5E9012114F8010B90479A
:10041000B442F8D32846FFF7B5FF70BD2DE9F0418F
:100420000646002410687529314616A510D0FFF73E
:10043000BAFF002802DA404213A507E031688A07B4
:1004400001D512A502E0490704D511A5012401E058
:10045000FFF7B2FF00210A2206F1240709E0B0FBF2
:10046000F2FCB0FBF2F302FB1C003030785418466B
:10047000491C0028F3D123462A463046BDE8F04106
:1004800000F061BA000000002D0000002B00000009
:100490002000000011680268006A530501D5087049
:1004A0000AE0D30501D5088006E0130603D5C2177C
:1004B000C1E9000200E008600120704701694A1CA0
:1004C00002610878704700B58FB0CDE90131002195
:1004D000059105497944CDE903101146684600F0BD
:1004E00029F90FB000BD0000E5FFFFFF0A6802F820
:1004F000010B0A60704700002DE9FF5F15468A4630
:100500000446DFF8AC80F8440027D8E900103E46E6
:10051000CDE9001010E03AF816106A4602A800F083
:1005200025FE411C07D02178890603D5E2693918D8
:1005300091420DD80744761C2078800602D5E069E8
:10054000B84205DDAE42E6DB3AF816000028E2D1FB
:10055000A069C01BA0612046FFF7FEFED8E900108D
:10056000CDE90010002017E03AF818106A4602A8FA
:1005700000F0FCFDB0F1FF3F81460BD000250DF1EE
:10058000080B05E0D4E901211BF8050090476D1C1C
:100590004D45F7D308F10100B0428046E4DB206A04
:1005A000384420622046FFF7EDFEBDE8FF9F0000C3
:1005B000363E00002DE9F0418046D21D22F00702B0
:1005C0000025D2E90002F52915A614D0011E72F10A
:1005D000000106DA0023D0EB030063EB020211A650
:1005E00008E0D8F800108B0701D50FA602E04907F4
:1005F00001D50EA601251146002408F1240704E0C8
:1006000000F05CF930323A55641C50EA0102F7D12F
:100610002B46324621464046BDE8F04100F093B9F2
:10062000000000002D0000002B0000002000000052
:1006300030B4002100F1240408E002F00705D208DC
:10064000303542EA4372DB086554491C52EA03051F
:10065000F3D10468002310A2250707D5A40600D40F
:1006600021B1C46901230DA2641EC46130BC00F035
:100670006AB910B5044621461068FFF79DFE024690
:100680002046BDE810400023D2E7D21D22F007012A
:10069000D1E90023CCE7000000000000300000009A
:1006A000F0B40D460188090502D5214C7C4402E0D6
:1006B0001F4C7C440E34002100F1240608E002F0B7
:1006C0000F071209E75D42EA03721B097754491CC0
:1006D00052EA0307F3D102780023120704D5702DE4
:1006E00006D009B1022311342246F0BC00F02BB928
:1006F00001231034F8E770B504460D462146106812
:10070000FFF75AFE024629462046BDE87040002306
:10071000C6E7D21D22F00703D3E90023C0E7036830
:10072000126843F0200303600823C3610023B7E786
:10073000983C00002DE9F05F894604464FF0000A1E
:10074000DFF874B1FB44C0F820A02046E168884778
:10075000002874D0252806D0D4E901219047206ACA
:10076000401C2062F1E700265F462046E16888478A
:100770002028054607DB312D05D2781910F8200C0A
:1007800008B10643F1E7B00701D526F00406C4F826
:100790001CA00027C4F818A02A2D09D0284603F071
:1007A00071FD38B304EB8708303DC8F8185019E0E4
:1007B00059F8041B204604EB87029161E1688847E1
:1007C000012F054618D1E069002820DA26F020061E
:1007D0001DE0D8F8180000EB800005EB4000303831
:1007E000C8F818002046E1688847054603F04AFD2E
:1007F0000028EED1012F0AD02E2D08D12046E16825
:1008000088477F1C0546022F46F02006C4DBA069FE
:10081000002803DA404246F00106A061F00701D04B
:1008200026F010066C2D0BD0682D09D04C2D39D038
:100830006A2D35D0742D35D07A2D33D016E038E0BE
:10084000E1682F4620468847B842054609D16C2FFB
:1008500026D04FF48060E16806432046884705466D
:1008600004E06C2F1AD04FF4807006430DB3A5F14D
:100870004100192802D8203546F400664A46294628
:10088000204626604E46FFF76BFC80B101280BD056
:10089000F61D26F0070000F1080956E74020E4E7BE
:1008A0008020D8E70020D6E706F104094DE7284666
:1008B00052E7206ABDE8F09F283C000030B5B0F157
:1008C0000A024FEA900E71F100034EEA817EB0EB0E
:1008D0000E0061EB91014FEA101E4EEA017E10EB13
:1008E0000E0041EB11114FEA102E4EEA016E10EB93
:1008F0000E0041EB11214FEA104E4EEA014E10EB73
:100900000E0041EB1141401841F100014FEAD000C7
:1009100040EA41704FEAD10110EB80054FEA8104B3
:1009200044EA907444EB01046D1944EB0404521B37
:10093000A3414FF0000348BF0A3200D530BD401C30
:1009400041F1000130BD2DE9F0470D469946924630
:10095000044600F124080168880604D5E06921F006
:100960001001216000E00120A84201DD471B00E0EA
:100970000027A1697A1902EB0900081AA061207802
:10098000C00602D42046FFF7E7FC002608E0D4E9C1
:1009900001211AF806009047206A401C761C20624C
:1009A0004E45F4DB2078C0060AD52046FFF7D4FC7C
:1009B00006E0D4E9012130209047206A401C2062E3
:1009C000381EA7F10107F4DC07E0D4E9012118F88B
:1009D00005009047206A401C2062281EA5F10105F1
:1009E000F3DC2046FFF7CEFC2078000602D502207B
:1009F000BDE8F0870120FBE770472DE9FF4F0C466B
:100A00001E464FF0FF378BB0D2E90001DDF8608061
:100A10000A908A46C1F30A5505B93D4600210846A9
:100A20004FF00000BAF1000F00F4400005DA00EBCF
:100A300080004FF4400101EA50004FEA9059B9F1AB
:100A4000010F00DDB9460A9850EA4A000ED044F67C
:100A50001050A5F2FF3545432F14B8F1000F1ED0FA
:100A60007542291E1EDDC9F100021CE0B8F1010F1C
:100A70004FF0000001D0302103E0F24305E02154A3
:100A8000401CB042FBDB30460022002121540B9970
:100A9000C1F80880C1E900200FB0BDE8F08FBD1B90
:100AA0006D1CDEE74A4600DA694206A800F0F0FB5A
:100AB00006AB93E8070003AB83E8070050460A99AA
:100AC00000F0ADFC8DE80700A0F500501F38009045
:100AD0000398002D0ADD42F21F014A460844002314
:100AE00003A90390684600F016FF09E0A0F5005046
:100AF0004A461F38002303A90390684600F020FFF0
:100B00008DE807000004000C03D04FF0FF304108CF
:100B100000E01046B8F1000F03D000220092154605
:100B20001EE0751E05D4FFF7C9FE303262556D1EFA
:100B3000F9D5B3460122084302D000227F1C04E00D
:100B40002078302801D100227F1E002A099784D006
:100B50001DE0112D07DAFFF7B1FE303262556D1C32
:100B600050EA0102F5D1084302D00098C8B10EE066
:100B70000021681E05E0235C625C63542254401E21
:100B8000491C8142F7DBAB46A81B401E09900020A0
:100B900004F80B000B98099AC0F80880C0E9002BF4
:100BA0007AE711264FF0000857E72DE9F04F884605
:100BB0000446D21D22F0070191B0D1E90001CDE930
:100BC0000A0103F02FFB02460B98C00F01D02D2025
:100BD00007E02068810701D52B2002E0202101EAEF
:100BE000C000032A099001D0072A05DB03464146CD
:100BF000204600F00DFB0BE12078800601D5E0696E
:100C000000E00620B8F1650F814606D0B8F1660F06
:100C100018D0B8F1670F70D131E00020B9F1110F91
:100C2000009001DB112301E009F101030AAA01A9E7
:100C30000CA8FFF7E2FEDDE90C70002609F10105C2
:100C4000834647E001204B4600904FF000470AAA38
:100C500001A90CA8FFF7D1FEDDE90DB00C995D46A6
:100C6000002610B909F101000D18B9EB050003D4F5
:100C7000C0F1FF3609F10105A5EB09002BE0B9F140
:100C8000010F01DA4FF001090020B9F1110F0090B6
:100C9000484601DD112300E003460AAA01A90CA879
:100CA000FFF7ABFEDDE90C704D4600268346207849
:100CB00000070AD4AB4500DA5D4601A8012D04DD2A
:100CC000411911F8011C302907D04F4502DA17F1FC
:100CD000040F04DA012082460FE06D1EEEE7002FBC
:100CE00002DCED1B3E4403E0781CA84200DD7D1CC5
:100CF000B81B00F1010A4FF000472078000703D429
:100D0000AA4501DB4FF0FF3A0021B7F1004F0DF18A
:100D100043088DF8431024D002202B23002F01DA42
:100D20007F422D230A21021EA0F1010000DC5FB1E9
:100D300097FBF1FC97FBF1F201FB1C7C17460CF1D1
:100D4000300C08F801CDEEE7A8F10100037021880E
:100D5000090501D5452100E06521A0F1010800F851
:100D6000011C09980FA9A1EB0807FF1D00B1012084
:100D7000411901EBEA70A1693844081A401EA061CC
:100D80002078C00602D42046FFF7E6FA099828B179
:100D9000D4E901219047206A401C20622078C006D7
:100DA00022D52046FFF7D8FA1EE0002E04DBB3451B
:100DB00002DD01A8805D00E03020D4E901219047E8
:100DC000206A401C2062761CAAF101005FEA000A3A
:100DD0000AD100F019FAC0680168405CD4E9012129
:100DE0009047206A401C2062281EA5F10105DCDC2A
:100DF00007E0D4E9012118F8010B9047206A401C54
:100E00002062381EA7F10107F3DC2046FFF7BAFA8B
:100E1000032011B041E600002DE9F04F04460D46D5
:100E2000D21D22F0070089B0D0E900974846394624
:100E300003F0F8F90246F80F01D02D2307E02068EF
:100E4000810701D52B2302E0202101EAC0038DF8A0
:100E500020300BB1012000E00020032A824601D09F
:100E6000072A04DB2946204600F0D2F93FE120782A
:100E7000800601D40D2500E0E569C7F30A560D2D63
:100E800049DA00214FEA175B08464FF00000002FB7
:100E900000F4400007DA00EB80004FF4400100EB63
:100EA000D07001EA60008115012901DD4FF0FF31AA
:100EB00000224FEA850CBCF1180F06D31346ACF1A3
:100EC00018004FF08052C24003E04FF4801323FA21
:100ED0000CF30CF10C0CBCF1200F04D3ACF1200C82
:100EE00009FA0CF001E007FA0CF000294FF0004875
:100EF00001DD18B90FE00ED140450CD319EB020902
:100F00005F4121B9404502D19F4329EA0209BBEB69
:100F1000175F00D0761C2088000502D57B487844F6
:100F200002E07A487844193808AA302302F80A30D7
:100F3000037C0AF10101002E0AF1020A53546A46A9
:100F400002DC4FF0300101E04FF031014FF00108B9
:100F50008DF8001002D0A6F2FF3603E059EA4701EF
:100F600000D06B4E002D02DC2178090704D54FF02C
:100F700002082E218DF80110C44600210BE0C7F3B2
:100F800003433F01C35C491C6D1E02F8083005296C
:100F900008F1010801DA002DF1DC00210CE000EB82
:100FA0001973491C1B786D1E082902F808304FEA96
:100FB000091908F1010801DA002DF0DC21688B061F
:100FC00002D516E0A8F10108E04505DD02EB0803B3
:100FD00013F8013C302BF5D0B8F1000F09DD02EB1E
:100FE000080313F8013C2E2B03D1090701D4A8F103
:100FF0000108002D05DD3E2102F808106D1E08F1E4
:101000000108407C002E02F8080008F1010804DA0B
:101010002D20764202F8080002E02B2002F808009A
:101020000A214FF47A70864208F101080BDB96FB27
:10103000F0F3303302F8083096FBF0F308F10108C2
:1010400000FB136601E0642E0CDB642096FBF0F3DA
:10105000303302F8083096FBF0F308F1010800FB8A
:10106000136601E00A2E06DB96FBF1F0303002F841
:10107000080008F1010896FBF1F001FB1060303028
:1010800002F80800A16908F1010808EB050202EB6B
:101090000A00081AA0612078C00602D42046FFF793
:1010A0005BF9216A08AE01EB0A00206204E0D4E992
:1010B000012116F8010B9047BAF1010AF7D2207806
:1010C000C00602D52046FFF747F96E4609E016F83C
:1010D000010B3E280FD0D4E901219047206A401C23
:1010E0002062B8F10108F2D22046FFF74BF909B0AF
:1010F0000320BDE8F08F206A2844206203E0D4E991
:101100000121302090476D1EEBD3F8E772340000C8
:1011100002FCFFFF10B5436913B1AFF3008001E09B
:10112000FFF753F9012010BD127800F124010A7075
:1011300000224A700122EDE711684FF0FF32E9E723
:1011400010B5436913B1AFF3008001E0FFF7D4F9A4
:10115000012010BD128800F1240182840022C28483
:101160000122EDE711684FF0FF32E9E770B516464E
:101170000C46054600F040F8036893F80101012889
:1011800006D0FF2C0FD8185D68B101202C7070BDFF
:10119000D3F807013246214603F2071303442846D9
:1011A000BDE8704018474FF0FF3070BD754600F045
:1011B000EBF8AE4605006946534620F00700854629
:1011C00018B020B5FFF744F8BDE820404FF0000606
:1011D0004FF000074FF000084FF0000B21F007011F
:1011E000AC46ACE8C009ACE8C009ACE8C009ACE862
:1011F000C0098D467047000010B500F005F8001DCD
:1012000010BD00BFF130000000487047B801002059
:101210002DE9F0411F46044603260168072A01F420
:10122000006004DB08B116A505E016A503E008B1CF
:1012300015A500E015A521F010002060A069C01ED2
:10124000A0610FB1401EA0612046FFF785F84FB1A5
:10125000D4E9012138469047206A401C2062C01C16
:10126000206206E0206AFAE7D4E9012115F8010BB3
:101270009047761EF8D22046FFF784F8BDE8F0814B
:101280004E414E006E616E00494E4600696E66002A
:101290002DE9F047814616468AB0354878440DC896
:1012A0008DE80D0032487844801C03AC0DC884E8FA
:1012B0000D0041F69B300844372190FBF1F290FB82
:1012C000F1F5A5F1800501FB12041B3C02D5644237
:1012D000012000E00020DFF898A080460027FA44B3
:1012E000AAF1BE0A0EE0E0070AD03246684607EBD4
:1012F000470101230AEB810100F022FB8DE8070082
:1013000064107F1C002CEED1194F7F44AE3F19E0D2
:10131000E80715D007EB04100DF1180A90E80E004D
:101320008AE80E00C068F04201D198190890324650
:10133000012306A903A800F003FB03AB83E8070021
:101340006D10641C002DE3D14FF001033246694655
:10135000B8F1000F03A802D000F0DDFA01E000F0C0
:10136000EFFAC9E90001C9F808200AB0BDE8F08722
:101370008431000010B50446AFF300802046BDE87C
:101380001040FEF750BF0000004870479801002051
:101390004FF0013C50F8042B51F8043B9A4221D104
:1013A000A2EB0C03934313EACC1317D150F8042B90
:1013B00051F8043B9A4215D1A2EB0C03934313EA74
:1013C000CC130BD150F8042B51F8043B9A4209D1AD
:1013D000A2EB0C03934313EACC13DBD04FF00000D5
:1013E000704700BFD01A01BAB1FA81F101F01801BB
:1013F00022FA01F0CB40C1F12001DBB2C0B2C01A29
:101400002CFA01F3D11A914311EAC311E6D17047C6
:1014100001491820ABBEFEE72600020070475FEAD4
:10142000400C08BF91F0000F4FEA8C234FEAC12215
:1014300043EA51514FEA1C5018BF00F5F0404FEA03
:10144000300018BF41F000415FEA6C5C00F0298079
:10145000BCF1FF3F08BF40F080407047130C06BF4F
:1014600012044FF0100C4FF0000C130E04BF1202C8
:101470000CF1080C130F04BF12010CF1040C930FB4
:1014800004BF92000CF1020CD30F04BF52000CF108
:10149000010C11464FF00002A0F11F00A0EB0C0060
:1014A000704711F0004F08BF704731F000413FF422
:1014B000D5AF0B0C06BF09044FF0100C4FF0000C19
:1014C0000B0E04BF09020CF1080C0B0F04BF09013D
:1014D0000CF1040C8B0F04BF89000CF1020CCB0F34
:1014E00004BF49000CF1010CCCF12003A0EB0C006F
:1014F00022FA03F302FA0CF241EA030100F10100BF
:10150000704720F07F4C80EA030023F07F47ACEB6C
:10151000070303F57C5300F0004003F1FF032DE9BE
:1015200080494FEA154B09B44FEA144325EA0B4EA4
:1015300024EA03480FF2042606EB132749083E78F5
:101540005FEA320203FB0667C7F5000707FB06F6F2
:101550004FEA54374FEAD64606F1020607FB066CFF
:10156000CCF1005C4FEA1C472CEA074C07FB06F461
:101570000CFB06F504EB15464FEA961634BF002027
:101580004FF000404FEAD13706FB07FC4FEA1C4CF6
:101590000CFB0BF7D21B03FB0CF761EB07010CFBF9
:1015A0000EF7B0EB074072EB17420CFB08F734BFA5
:1015B000A2EB0742B2EB074261EB17414FEA0C4442
:1015C0004FEA910706FB07FC4FEA1C4C0CFB0BF79C
:1015D000B0EBC74072EB573203FB0CF734BFA2EB02
:1015E000C742B2EBC74261EB57310CFB0EF7B0EBD1
:1015F000C70072EB57720CFB08F734BFA2EBC702AF
:10160000B2EBC70261EB5771039F4FEA816141EA78
:10161000921104EBCC044FEAD1374FEA826206FB09
:1016200007FC42EA90124FEA80604FEA1C4C0CFB28
:101630000BF7D21B03FB0CF761EB07010CFB0EF75A
:10164000B0EB074072EB17420CFB08F734BFA2EB7C
:101650000742B2EB074261EB17414FEA8C554FEA64
:10166000910704EB9C2406FB07FC4FEA1C4C0CFB87
:101670000BF7B0EBC74072EB573203FB0CF734BFEC
:10168000A2EBC742B2EBC74261EB57310CFB0EF73E
:10169000B0EBC70072EB57720CFB08F734BFA2EB3C
:1016A000C702B2EBC70261EB577115EB4C254FEA4D
:1016B000816141EA92114FEA82624FEAD13742EAF0
:1016C000901206FB07FC44F100044FEA80604FEAE9
:1016D0001C4C0CFB0BF7D21B03FB0CF761EB070157
:1016E0000CFB0EF7B0EB074072EB17420CFB08F750
:1016F00034BFA2EB0742B2EB074261EB174115EB97
:101700001C154FEA813141EA92414FEA823242EAA6
:1017100090424FEA80304FEA0C7644F1000448EAE8
:1017200003434EEA0B484FF0000EB2EB080C71EB8E
:10173000030724BF624639464EEB0E0E4FF0000BF6
:101740000018524149414BEB0B0BB2EB080C71EB0B
:1017500003077BF1000B24BF624639464EEB0E0EA9
:101760004FF0000B0018524149414BEB0B0BB2EB11
:10177000080C71EB03077BF1000B24BF624639466E
:101780004EEB0E0E51EA020718BF46F0010616EBAB
:101790000E7655F1000254F1000103D5BDE8890130
:1017A000BDE80088BDE88901BDE80048B61952418E
:1017B00041EB0101A3F10103704780807F7E7D7CB6
:1017C0007B7A7978777676757473727171706F6ED3
:1017D0006E6D6C6C6B6A6A6968686766666564647E
:1017E000636362616160605F5F5E5E5D5D5C5C5B08
:1017F0005B5A5A5959585857575656555555545477
:10180000535352525251515050504F4F4F4E4E4DD4
:101810004D4D4C4C4C4B4B4B4A4A4A494949484820
:101820004847474747464646454545444444444360
:1018300043434342424242414141002B9C4630D403
:1018400077002BD01CB54FEA370703B44FF01000D8
:101850004FF01001BAF1000F06D0BCF1000FDCBF51
:1018600040F0080040F008014FF000000FBCBDE858
:1018700010400BF1010BBBF1010F08BF5FEA170726
:1018800022BF12F1010211F101014FF0004143F1B9
:10189000000300F0004043EA00007047F9D3570806
:1018A000D0E746EA064613F1400F4FEA16461FDD21
:1018B00013F1200FDFBF16430A46002120335B429D
:1018C000BED0C3F1200746EA064602FA07F74FEA00
:1018D000164646EA0706C3F1200722FA03F201FA88
:1018E00007F721FA03F14FF0000342EA0702A7E7E6
:1018F00046EA020646EA06464FEA164646EA010668
:10190000BCBF46EA0646360C4FF000034FF000021B
:101910004FF0000194E72DE9804C9A46934670B44D
:1019200091E8380007C831EA400C48BF34EA430C5C
:1019300003D5FFF7E6FDFFF780FFF0BCBDE8008CA4
:101940002DE9804C9A46934670B491E8380007C858
:1019500010F0804F08BF13F0804F03D100F005F85E
:10196000FFF76BFFF0BCBDE8008C20F07F4780EAFA
:10197000030023F07F4C07EB0C03A3F57C5300F02E
:101980000040A3F1FE0392F0000F00F0B38095F049
:10199000000F00F077802DE901494FEA11404FEA2E
:1019A000144621EA004800FB06FC24EA064708FB2F
:1019B00006F607FB08F800FB07F718EB06484CEBA8
:1019C000164C4FEA124B18EB07484FEA15464CEB02
:1019D000174022EA0B4E0BFB06FC25EA06470EFBDE
:1019E00006F607FB0EFE0BFB07F71EEB064E4CEB55
:1019F000164C4FF000061EEB074E4CEB174B18EB46
:101A00000B0840F1000018EB0E0B58EB000840F1FA
:101A100000008F1A4FF000013CBFC943661B14BF82
:101A2000B5EB040C00213CBFC943F61B4FEA174439
:101A30004EEA8E0E27EA04454FEA1C4704FB076274
:101A40002CEA074C05FB07F70CFB05F604FB0CFC26
:101A500016EB074642EB174216EB0C4642EB1C42D4
:101A60001BEB060658EB0202414146EA9E0601D5F1
:101A7000BDE80189B619524141EB0101A3F101030F
:101A8000BDE801894FEA14454FEA114724EA0546AB
:101A900021EA074C05FB07F406FB07F70CFB06F1F0
:101AA00005FB0CFC11EB074144EB17444FEA1247CE
:101AB00011EB0C4144EB1C4422EA074C05FB07F2F6
:101AC00006FB07F70CFB06F605FB0CFC16EB0746BE
:101AD00042EB174216EB0C4642EB1C456A1854F1D8
:101AE000000148BF7047B619524141EB0101A3F113
:101AF0000103704795F0000F37D04FEA11424FEACB
:101B0000144721EA024624EA074C02FB07F106FBD0
:101B100007F70CFB06F402FB0CFC14EB074441EB4B
:101B200017414FEA154714EB0C4441EB1C4125EAE1
:101B3000074C02FB07F506FB07F70CFB06F602FB5A
:101B40000CFC16EB074645EB174516EB0C4645EB30
:101B50001C42121951F1000148BF7047B619524199
:101B600041EB0101A3F1010370474FEA14454FEA2D
:101B7000114724EA054621EA074C05FB07F106FB5D
:101B800007F70CFB06F24FF0000605FB0CFC12EB0E
:101B9000074241EB174112EB0C4251EB1C4148BF8D
:101BA0007047921841EB0101A3F101037047000057
:101BB0002DE9F84305460E4617464FF00008C1468A
:101BC000002409E0285D0090012269460C4800F0DD
:101BD000DFFF8146601C84B2B442F3D3084800683A
:101BE000806840F00100064909688860B94502D163
:101BF0004FF0010801E04FF000084046BDE8F883CF
:101C000000000020F0B587B004460125012600271A
:101C10000CB9A52406E0012C01D1002402E000202B
:101C200007B0F0BD01F070F9064601F0FFF8054677
:101C3000ADB9A6B902200090012003908DF81040A4
:101C4000684601F077F805460DB9012700E0002746
:101C500001F0E2F8054601F0D1F8054600E0002762
:101C60003846DDE7F8B50446144800F0F7FB207865
:101C7000451C601950F8046C291F32462046FFF7B6
:101C800097FF012811D10EA000F0E8FB01210846C2
:101C900000F001FCA078FFF7B5FF00900121684635
:101CA00000F016FC01F0B4F806E00CA000F0D6FB42
:101CB0000021084600F0EFFBF8BD00003C4400089E
:101CC00043524320566572696669636174696F6E39
:101CD00020506173736564200D0A00004352432055
:101CE000566572696669636174696F6E20466169E1
:101CF0006C6564200D0A000070470000F8B50446CA
:101D00001CA000F0ABFB2078451C601950F8046C57
:101D100000200090291F32462046FFF749FF012886
:101D20001FD11FA000F09AFB0121084600F0B3FB71
:101D3000E178A07800F064FB00909DF80000032893
:101D400007D11EA000F08AFB0121684600F0C0FB0D
:101D50000EE01FA000F082FB0121684600F0B8FBF6
:101D600006E01FA000F07AFB0021084600F093FB7C
:101D7000F8BD00004D617373206572617365206F5B
:101D80007220736563746F72206572617365206F72
:101D900066207573657220666C617368200D0A0099
:101DA00043524320566572696669636174696F6E58
:101DB00020506173736564200D0A000045726173E1
:101DC0006520497320446F6E65200D0A00000000F5
:101DD0004572617365204661696C6564200D0A0077
:101DE00043524320566572696669636174696F6E18
:101DF000204661696C6564200D0A000010B588B04A
:101E000001A800F089FF9DF81400A52801D1002445
:101E100000E00124204608B010BD0000F8B50446DB
:101E200014A000F01BFB2078451C601950F8046CCE
:101E300000200090291F32462046FFF7B9FE0128F6
:101E400010D117A000F00AFB0221012000F023FBB3
:101E50001A480068C0F30B0000900221684600F0A9
:101E600037FB06E016A000F0F9FA0021084600F062
:101E700012FBF8BD5265616420746865204D4355BE
:101E80002043686970206964656E7469666963617E
:101E900074696F6E206E756D626572200D0A0000A8
:101EA00043524320566572696669636174696F6E57
:101EB00020506173736564200D0A0000002004E067
:101EC00043524320566572696669636174696F6E37
:101ED000204661696C6564200D0A000070B50446F7
:101EE00011A000F0BBFA2078451C601950F8046C72
:101EF000291F32462046FFF75BFE01280BD117A0B1
:101F000000F0ACFA0C21012000F0C5FA0C211A48AF
:101F100000F0DEFA06E019A000F0A0FA0021084661
:101F200000F0B9FA70BD0000526561642074686504
:101F300020636F6D6D616E647320737570706F7266
:101F40007465642062792074686520626F6F746CB8
:101F50006F61646572200D0A000000004352432047
:101F6000566572696669636174696F6E205061734A
:101F7000736564200D0A00001800002043524320BE
:101F8000566572696669636174696F6E204661693E
:101F90006C6564200D0A0000F8B5044612A000F03C
:101FA0005DFA2078451C601950F8046C291F3246F0
:101FB0002046FFF7FDFD01280ED115A000F04EFAD6
:101FC0000121084600F067FAFFF718FF0090012191
:101FD000684600F07DFA06E014A000F03FFA002108
:101FE000084600F058FAF8BD5265616420746865CF
:101FF00020666C61736820726561642070726F7412
:10200000656374696F6E206C6576656C200D0A00DF
:1020100043524320566572696669636174696F6EE5
:1020200020506173736564200D0A00004352432001
:10203000566572696669636174696F6E204661698D
:102040006C6564200D0A000070470000F8B5044676
:1020500012A000F003FA1CA0006800902078451C34
:10206000601950F8046C291F32462046FFF7A0FD86
:1020700001280BD115A000F0F1F90421012000F096
:102080000AFA0421684600F023FA06E016A000F0E0
:10209000E5F90021084600F0FEF9F8BD52656164DB
:1020A0002074686520626F6F746C6F616465722064
:1020B00076657273696F6E2066726F6D20746865E5
:1020C000204D4355200D0A00640100004352432077
:1020D000566572696669636174696F6E20506173D9
:1020E000736564200D0A00004352432056657269EF
:1020F0006669636174696F6E204661696C6564200E
:102100000D0A000001460020B1F1005F02D3064A2B
:10211000914205D9B1F1006F04D3044A914201D82C
:10212000012000E00020704700500020000001085E
:102130002DE9F843054622A000F090F92878461CC6
:10214000A81950F8048CD5F80240311F42462846A1
:10215000FFF72EFD012829D123A000F07FF90121EE
:10216000084600F098F92046FFF7CCFF00909DF854
:102170000000012812D123A000F070F90121684667
:1021800000F0A6F92748844201D100F06BF804F072
:10219000010000B9641C2746B84706E022A000F001
:1021A0005DF90121684600F093F906E026A000F0F1
:1021B00055F90021084600F06EF9BDE8F8830000EB
:1021C0004A756D7020626F6F746C6F616465722008
:1021D000746F207370656369666965642061646407
:1021E00072657373200D0A0043524320566572696D
:1021F0006669636174696F6E2050617373656420F2
:102200000D0A00004164647265737320566572693B
:102210006669636174696F6E2050617373656420D1
:102220000D0A000000800008416464726573732029
:10223000566572696669636174696F6E204661698B
:102240006C6564200D0A0000435243205665726994
:102250006669636174696F6E204661696C656420AC
:102260000D0A000070B50648046845682E462046F1
:1022700080F3088800BF01F095F9B04770BD0000F9
:1022800000800008704700002DE9FC41044628A0AA
:1022900000F0E4F82078451C601950F8047C291FF0
:1022A0003A462046FFF784FC012837D12DA000F0E4
:1022B000D5F80121084600F0EEF8D4F8026094F851
:1022C00006803046FFF71EFF01909DF804000128AC
:1022D0001CD12BA000F0C2F842463146E01D00F0B0
:1022E000DFF900909DF80000012807D12CA000F034
:1022F000B5F80121684600F0EBF806E02DA000F0EB
:10230000ADF80121684600F0E3F806E02DA000F0EA
:10231000A5F8012101A800F0DBF806E031A000F0EB
:102320009DF80021084600F0B6F8BDE8FC810000E9
:102330005772697465206461746120696E746F20DE
:10234000646966666572656E74206D656D6F72692D
:102350006573206F6620746865204D4355200D0A13
:10236000000000004352432056657269666963614C
:1023700074696F6E20506173736564200D0A0000EC
:10238000416464726573732056657269666963613E
:1023900074696F6E20506173736564200D0A0000CC
:1023A0005769746520537563636573736564200DA5
:1023B0000A00000057697465204661696C656420F5
:1023C0000D0A00004164647265737320566572697A
:1023D0006669636174696F6E204661696C6564202B
:1023E0000D0A0000435243205665726966696361B5
:1023F00074696F6E204661696C6564200D0A000087
:1024000070B586B004460D4602262819042801DD61
:10241000FF2C1FD12819042802DC0020029001E0C3
:102420000220029001200390A00300F100600490BC
:102430002801059000F068FD01A902A800F0E4FB66
:1024400000F0DCFC0198B0F1FF3F01D1032600E071
:10245000022600E00026304606B070BD0FB400B57D
:102460009BB0642102A8FDF74DFF1DA8019002A8B2
:10247000019A1C99FDF712FF4FF0FF33642202A965
:10248000034801F0F3FC002001901BB05DF814FB41
:1024900068000020704738B504460D4600200090C3
:1024A0008DF801504CB1012C0FD1CD208DF80000DA
:1024B0000221684600F00CF808E0AB208DF800001F
:1024C0000121684600F004F800E000BF00BF38BDFD
:1024D00070B504460D46AAB24FF0FF3321460248BC
:1024E00001F0C4FC70BD00002400002070B5002580
:1024F00000260124C8213D48FDF7E2FEA31E01226B
:102500003A493B4801F044FC0446002C6BD1374863
:102510000678631E3246411C354801F039FC0446FA
:1025200032480678002C5CD140781038122852D2FC
:10253000DFE800F0090E13181D22272C343C5151FE
:1025400051515151444C2948FFF780FD012547E086
:102550002648FFF7C3FC012542E02448FFF75EFC54
:1025600001253DE02148FFF717FD012538E01F4810
:10257000FFF7DEFD012533E01C48FFF7BFFB012517
:102580002EE01A48FFF780FE012529E01948FFF7E1
:1025900065FF1648FFF7B0FB012521E016A0FFF705
:1025A0005DFF1248FFF76EFE012519E01EA0FFF740
:1025B00055FF0E48FFF748FD012511E025A0FFF764
:1025C0004DFF0A48FFF766FF012509E00748FFF7BE
:1025D00049FB012504E025A0FFF740FF002500BFCF
:1025E00002E0002500E00025284670BDD000002054
:1025F00024000020804400085265616420646174F6
:10260000612066726F6D20646966666572656E74BE
:10261000206D656D6F72696573206F6620746865E3
:10262000204D4355200D0A005265616420616C6C99
:102630002074686520736563746F722070726F74A4
:10264000656374696F6E20737461747573200D0A0D
:10265000000000005265616420746865204F54508A
:1026600020436F6E74656E74200D0A00496E7661AA
:102670006C696420636F6D6D616E6420636F646567
:102680002072656365697665642066726F6D20747B
:10269000686520686F73742021210D0A0000000016
:1026A0002DE9F04706460F46904601250024A14635
:1026B00000F02AFC054605B111E000240CE036F8D4
:1026C00004C0391962460023012000F0C5FB05460D
:1026D00005B103E0A01C84B24445F0DB00BF15B196
:1026E0004FF0000901E04FF0010900F087FB0546BB
:1026F0004846BDE8F08700BFFEE7704772B600BFEE
:10270000FEE700000021074AD1610749096941F04D
:102710000401054A11611146096941F04001116146
:1027200070470000B0000020002002402DE9F04773
:10273000044600254FF6FF763746B046B14600F016
:10274000F5F80443E6B2C4F30727C4F307484FEA99
:1027500014694CF2503000F0E3F90546002D4FD1DA
:102760002949C86100F0A8FA0546002D48D127483C
:10277000006940F0100025490861FF2E09D0244867
:1027800000883043224908804CF2503000F0C8F9EC
:1027900005466DB9FF2F0BD01D48801C00883843BB
:1027A0001B49891C08804CF2503000F0B9F90546ED
:1027B0007DB9B8F1FF0F0CD01548001D008840EA24
:1027C00008001349091D08804CF2503000F0A8F9A8
:1027D00005467DB9B9F1FF0F0CD00D48801D00886A
:1027E00040EA09000A49891D08804CF2503000F087
:1027F00097F905460548006920F010000349086173
:102800002846BDE8F0870000B0000020002002400C
:1028100008F8FF1F2DE9F047044600254FF6FF7624
:102820003746B046B14600F081F8C0432043C44368
:10283000E6B2C4F30727C4F307484FEA14694CF221
:10284000503000F06DF90546002D4FD12949C8617F
:1028500000F032FA0546002D48D12748006940F0C3
:10286000100025490861FF2E09D024480088304017
:10287000224908804CF2503000F052F905466DB9FB
:10288000FF2F0BD01D48801C008838401B49891C35
:1028900008804CF2503000F043F905467DB9B8F19C
:1028A000FF0F0CD01548001D008800EA08001349EE
:1028B000091D08804CF2503000F032F905467DB910
:1028C000B9F1FF0F0CD00D48801D008800EA090007
:1028D0000A49891D08804CF2503000F021F9054664
:1028E0000548006920F01000034908612846BDE84A
:1028F000F0870000B00000200020024008F8FF1F11
:10290000A5200021044AD26902F00201022901D166
:10291000002000E0A5207047002002400248C06966
:10292000C0F3820070470000002002400148006AA6
:10293000704700000020024070B504460D46012695
:102940004CF2503000F0ECF80646A6B900200B49D6
:10295000C8610B48006940F01000094908612580F2
:102960004CF2503000F0DCF806460548006920F0D3
:10297000100003490861304670BD0000B00000201F
:102980000020024070B5054600244CF2503000F0A3
:10299000C7F804465CBB00201649C86116480069A8
:1029A00040F02000144908610846006940F04000EA
:1029B00008614CF2503000F0B3F804460E4800694C
:1029C00020F020000C4908618CB90846006940F0ED
:1029D00010000861094805804CF2503000F0A0F862
:1029E00004460548006920F01000034908612046AC
:1029F00070BD0000B00000200020024000F8FF1F62
:102A000070B5044600254CF2503000F089F80546B8
:102A1000BDB900200C49C8610C48006940F01000A5
:102A20000A49086144F08800094908804CF2503096
:102A300000F076F805460548006920F010000349CB
:102A40000861284670BD0000B00000200020024050
:102A500002F8FF1F0021074AD1610749096941F0C7
:102A60000201054A116111464861096941F04001BE
:102A700011617047B0000020002002400022054B89
:102A8000DA61054A126942F00102034B1A610180C2
:102A900070470000B00000200020024000201E49C6
:102AA000C96801F0100139B11C49C96941F002013E
:102AB0001A4AD16140F010001749C96801F00401B9
:102AC00039B11649C96941F00101144AD16140F098
:102AD00004001149C96901F0010169B10F49C969CF
:102AE00041F004010D4AD16100BF0B49C96921F0D1
:102AF0000101094AD16100BF00BF40F201118842C3
:102B000006D10549C96921F00101034AD16101E0FB
:102B10000149C86000BF704700200240B00000209B
:102B200070B5044600F098FB054609E0601C38B11A
:102B300024B100F091FB401BA04201D9032070BDDD
:102B40001248C06800F001000028EFD10F48C068AB
:102B500000F0200020B100BF20200C49C86000BF59
:102B60000A48C06800F0100048B90848C06900F081
:102B7000010020B90548C06800F0040018B1FFF753
:102B80008DFF0120DBE70020D9E700000020024094
:102B900070B503460C46002002255D71002104E05B
:102BA00054F821501E683560491C9142F8D31D68C5
:102BB000286801255D7170BD10B504460CB901206F
:102BC00010BD607920B900202071204600F004F883
:102BD000012060710020F3E708B5094A01689142BD
:102BE0000DD100BF0749496941F04001054A5161D3
:102BF0001146496901F04001009100BF00BF08BDC6
:102C000000300240001002402DE9F04104460E461B
:102C10000127002500BF2648007E012802D102209E
:102C2000BDE8F08101202249087600BF2068022813
:102C300013D14CF25030FFF773FF90BB0120FFF728
:102C400061FD4CF25030FFF76BFF074619480069F1
:102C500020F004001749086123E04CF25030FFF7E0
:102C60005FFFF0B94FF0FF303060A56812E02846F2
:102C7000FFF7F0FE4CF25030FFF752FF07460D48C9
:102C8000006920F002000B4908610FB1356007E0D0
:102C900005F58065D4E9021001EB8020A842E6D852
:102CA00000BF00BF00200249087600BF3846B7E7E2
:102CB000B00000200020024070B5A5250124FFF7D8
:102CC0001FFEC5B24CF25030FFF72AFF0446ECB9A4
:102CD00000200F49C8610F48006940F020000D49ED
:102CE00008610846006940F0400008614CF250302D
:102CF000FFF716FF04460748006920F02000054949
:102D000008611CB92846FFF73DFE0446204670BD09
:102D1000B00000200020024010B5044607202060CB
:102D2000FFF704FEA060FFF7EBFD2074FFF7F6FD50
:102D3000607410BD70B50446012500BF2E48007EAA
:102D4000012801D1022070BD01202B49087600BF67
:102D5000207800F0010098B16068012804D1A068D3
:102D6000FFF758FD054603E0A068FFF7DFFC0546C6
:102D700035B100BF00202049087600BF2846E2E7B1
:102D8000207800F0020002280BD1207CFFF7FAFD2A
:102D9000054635B100BF00201749087600BF284618
:102DA000D1E7207800F0040004280BD1607CFFF705
:102DB00027FE054635B100BF00200F49087600BF49
:102DC0002846C0E7207800F0080008280CD1217EB2
:102DD0006069FFF7B1FD054635B100BF0020064927
:102DE000087600BF2846AEE700BF002002490876FB
:102DF00000BF2846A7E70000B00000200348006994
:102E000040F0800001490861002070470020024026
:102E100010B500F0DFFA10BD0348006920F400701F
:102E200001490861002070470020024007480069FE
:102E300000F4007028B90648044988600548886095
:102E400001E0012070470020FCE700000020024064
:102E500023016745AB89EFCD2DE9FE4F05468B4633
:102E600017469846012600240020029000BF2448FF
:102E7000007E012802D10220BDE8FE8F01202049FA
:102E8000087600BF4CF25030FFF74AFE064686BB7C
:102E9000012D02D10120029006E0022D02D1022074
:102EA000029001E00420029000241EE02201B946B5
:102EB000C24648465146FDF7DDF980B20190022036
:102EC00000FB04B000900199FFF7D8FD4CF25030A0
:102ED000FFF726FE06460B48006920F0010009496D
:102EE000086106B104E0601CC4B202988442DDDBD4
:102EF00000BF00BF00200249087600BF3046BBE794
:102F0000B00000200020024000200849096901F0BB
:102F1000800151B10649054A516006495160114688
:102F2000096901F0800101B10120704700200240D1
:102F300023016745AB89EFCD2DE9F8470346002211
:102F400094466EE14FF0010808FA02F4D1F80080CF
:102F500008EA0400A0427DD1DFF8DCA2D1F80480A9
:102F6000A8EB0A09D0453AD014DCB8F1030F50D0D1
:102F700009DCB8F1000F31D0B8F1010F1CD0B8F165
:102F8000020F49D120E0B8F1110F18D0B8F1120F9B
:102F900042D11EE0B9F5881F25D006DCB9F5803F87
:102FA00020D0B9F5801F37D11AE0B9F5001F18D02D
:102FB000B9F5041F30D117E0D1F80CC02DE0D1F8DD
:102FC0000C8008F1040C28E0D1F80C8008F1080C02
:102FD00023E0D1F80C8008F10C0C1EE000BF00BF0C
:102FE00000BF00BF00BF00BFD1F80880B8F1000FDC
:102FF00002D14FF0040C0BE0D1F80880B8F1010FBA
:1030000003D14FF0080C1C6102E04FF0080C5C612A
:1030100003E04FF0000C00E000BF00BFFF2801D824
:10302000984601E003F104084646FF2802D84FEA1B
:10303000820803E0A2F108084FEA88084746D6F85C
:1030400000804FF00F0909FA07F928EA09080CFA7D
:1030500007F900E088E048EA0908C6F80080D1F8DE
:10306000048008F08058B8F1805F7DD100BFDFF8A0
:10307000CC81D8F8188048F00108DFF8C091C9F871
:103080001880C846D8F8188008F00108CDF80080EC
:1030900000BF00BF4FEAB9384FEA920958F82950EB
:1030A0004FEA82784FEA18794FF00F0808FA09F8CA
:1030B00025EA0805DFF88881434502D14FF0000872
:1030C00016E0DFF88081434502D14FF001080FE0A0
:1030D000DFF87481434502D14FF0020808E0DFF8C1
:1030E0006C81434502D14FF0030801E04FF0040822
:1030F0004FEA82794FEA197908FA09F848EA050592
:10310000DFF84C814FEA920948F82950D1F8048041
:1031100008F48038B8F5803F0AD1DFF83881D8F854
:10312000008048EA0008DFF82C91C9F8008009E027
:10313000DFF82081D8F8008028EA0008DFF8149131
:10314000C9F80080D1F8048008F40038B8F5003FD1
:1031500010D1DFF8008108F10408D8F8008048EAAF
:103160000008DFF8F09000E05AE009F10409C9F81E
:1031700000800DE0DFF8DC8008F10408D8F800805A
:1031800028EA0008DFF8CC9009F10409C9F80080AA
:10319000D1F8048008F48018B8F5801F0ED1DFF84C
:1031A000B48008F10808D8F8008048EA0008DFF881
:1031B000A49009F10809C9F800800DE0DFF89480B7
:1031C00008F10808D8F8008028EA0008DFF88490A1
:1031D00009F10809C9F80080D1F8048008F4001842
:1031E000B8F5001F0ED1DFF86C8008F10C08D8F894
:1031F000008048EA0008DFF85C9009F10C09C9F882
:1032000000800DE0DFF84C8008F10C08D8F8008051
:1032100028EA0008DFF83C9009F10C09C9F80080A1
:10322000521CD1F8008028FA02F8B8F1000F7FF4A0
:1032300089AEBDE8F88700000000111000100240C0
:1032400000080140000C0140001001400014014042
:103250000800014000040140014800687047000078
:103260000800002003480068034909780844014920
:1032700008607047080000201000002010B50848C2
:10328000006840F0100006490860032000F08EF846
:103290000F2000F007F800F02BF8002010BD000010
:1032A0000020024070B504460E4800784FF47A7151
:1032B000B1FBF0F00C490968B1FBF0F5284600F0CD
:1032C0009BFC08B1012070BD102C07D200222146C2
:1032D000501E00F02DF80548046001E00120F2E7DF
:1032E0000020F0E710000020140000200C00002057
:1032F00008B500BF0D48806940F001000B498861A6
:103300000846806900F00100009000BF00BF00BFC8
:103310000846C06940F08050C8610846C06900F0A6
:103320008050009000BF00BF08BD000000100240A8
:103330002DE9F05F80460D461646002700F086FF17
:10334000074639462A46334601F00700C0F1070A0E
:10335000BAF1040F02D94FF0040A01E0C0F1070AE4
:10336000D14600F1040ABAF1070F02D24FF0000A69
:1033700001E0A0F1030AD4464FF0010A0AFA09FA63
:10338000AAF1010A0AEA020A0AFA0CFA4FF0010B42
:103390000BFA0CFBABF1010B0BEA030B4AEA0B0433
:1033A0002146404600F05AFFBDE8F09F00BF00F004
:1033B0000702064B19684FF6FF031940044B0B43F5
:1033C00043EA0221014B196000BF70470CED00E099
:1033D0000000FA0500BF00BF00BF00BF00BFBFF381
:1033E0004F8F00BF00BF00BF0948006800F4E060D5
:1033F00008490843001D0649086000BF00BF00BF20
:10340000BFF34F8F00BF00BF00BF00BF00BFFDE78D
:103410000CED00E00000FA0570B504460D460CB94D
:10342000012070BD5A48006800F00700A8420ED283
:103430005748006820F007002843554908600846AF
:10344000006800F00700A84201D00120E9E72078D9
:1034500000F0020002281DD1207800F004000428AA
:1034600005D14C48406840F4E0604A494860207803
:1034700000F00800082805D14648406840F4605034
:10348000444948604348406820F0F000A168084380
:1034900040494860207800F0010078B36068012856
:1034A00006D13C48006800F4003090B90120B8E72C
:1034B0006068022806D13748006800F0007040B903
:1034C0000120AEE73348006800F0020008B901208F
:1034D000A7E73048406820F00300616808432D49A1
:1034E0004860FFF7B9FE064609E0FFF7B5FE801B0E
:1034F00041F28831884202D9032092E707E025484B
:10350000406800F00C006168B0EB810FEDD12048FD
:10351000006800F00700A8420ED91D48006820F09E
:10352000070028431A4908600846006800F00700B1
:10353000A84201D0012074E7207800F0040004289C
:1035400007D11448406820F4E060E168084311495D
:103550004860207800F00800082808D10D4840682D
:1035600020F46050216940EAC1000A49486000F037
:10357000C7F808494968C1F30311074A515CC840BC
:103580000649086006480068FFF78CFE002048E7FF
:1035900000200240001002402843000814000020D0
:1035A0000C00002010B5FFF757FE04463D480068A8
:1035B00040F001003B49086006E0FFF74DFE001BAC
:1035C000022801D9032010BD3648006800F002002F
:1035D0000028F2D03348006820F0F80040F0800066
:1035E00030490860FFF738FE044600202D49486046
:1035F00008E0FFF731FE001B41F28831884201D913
:103600000320E0E72748406800F00C000028F0D1D4
:1036100025482649086026480068FFF743FE08B1A0
:103620000120D0E7FFF718FE04461E48006820F08E
:1036300080701C49086006E0FFF70EFE001B0228A0
:1036400001D90320BFE71748006800F00070002888
:10365000F2D114494860FFF7FFFD044611480068A5
:1036600020F410200F49086006E0FFF7F5FD001B6D
:10367000642801D90320A6E70A48006800F4003056
:103680000028F2D10748006820F48020054908602E
:103690000846406A40F0807048620020886000BFA1
:1036A00091E700000010024000127A001400002090
:1036B0000C00002001480068704700001400002042
:1036C00000B5FFF7F7FF04494968C1F30221034A37
:1036D000515CC84000BD00000010024038430008A3
:1036E00000B5FFF7E7FF04494968C1F3C221034A67
:1036F000515CC84000BD0000001002403843000883
:10370000F0B585B00FF26C0C9CE8E01001A8A0E8C1
:10371000E0101CA52D680095002100220023002444
:103720000020194D696801F00C05F5B1042D02D097
:10373000082D19D101E0154819E001ADC1F3834608
:10374000AC5D01F4803555B10F4D6D68C5F3404552
:103750001DF805200D4D6543B5FBF2F302E00C4D5D
:1037600004FB05F3184602E000BF084800BF00BF95
:1037700005B0F0BD02030405060708090A0B0C0D8D
:103780000E0F1010010200000010024000127A001B
:1037900000093D00F8B504460CB90120F8BD2078B9
:1037A00000F00100002878D0F848406800F00C00D4
:1037B00004280CD0F548406800F00C00082811D10E
:1037C000F248406800F48030B0F5803F0AD1EF48FD
:1037D000006800F4003000285FD0606800285CD1E9
:1037E0000120DBE700BF6068B0F5803F06D1E74805
:1037F000006840F48030E549086028E0606858B906
:10380000E248006820F48030E0490860084600681B
:1038100020F4802008601AE06068B0F5A02F0BD17A
:10382000DA48006840F48020D849086008460068FB
:1038300040F4803008600AE0D448006820F480300A
:10384000D24908600846006820F48020086000BF64
:10385000606888B1FFF700FD054606E0FFF7FCFC55
:10386000401B642801D9032098E7C848006800F489
:1038700000300028F2D010E0FFF7EEFC054606E02D
:10388000FFF7EAFC401B642801D9032086E7BF4804
:10389000006800F400300028F2D1207800F0020027
:1038A000022857D1B948406800F00C0050B1B74821
:1038B000406800F00C00082818D1B448406800F4B3
:1038C000803098B9B148006800F0020020B120694A
:1038D000012801D0012061E7AC48006820F0F80021
:1038E000616940EAC100A949086033E02069E8B194
:1038F0000120A7490860FFF7AFFC054606E0FFF787
:10390000ABFC401B022801D9032047E79F48006811
:1039100000F002000028F2D09C48006820F0F80077
:10392000616940EAC1009949086013E000209849A4
:103930000860FFF791FC054606E0FFF78DFC401B91
:10394000022801D9032029E79048006800F002000E
:103950000028F2D1207800F0080008282DD1A069B5
:10396000B8B101208B490860FFF776FC054606E0F8
:10397000FFF772FC401B022801D903200EE78348A1
:10398000406A00F002000028F2D0012000F048FB5D
:1039900013E000207F490860FFF75EFC054606E063
:1039A000FFF75AFC401B022801D90320F6E67748AE
:1039B000406A00F002000028F2D1207800F00400F4
:1039C000042873D100277148C06900F0805070B995
:1039D00000BF6E48C06940F080506C49C86108461D
:1039E000C06900F08050009000BF00BF01276A4806
:1039F000006800F48070B0B96748006840F48070D7
:103A000065490860FFF728FC054606E0FFF724FC3F
:103A1000401B642801D90320C0E65F48006800F419
:103A200080700028F2D000BFE068012806D1574816
:103A3000006A40F001005549086227E0E06858B983
:103A40005248006A20F00100504908620846006AA6
:103A500020F00400086219E0E06805280BD14B480B
:103A6000006A40F00400494908620846006A40F0D4
:103A7000010008620AE04548006A20F0010043495D
:103A800008620846006A20F00400086200BFE0688F
:103A9000A0B1FFF7E1FB054609E0FFF7DDFB401BA6
:103AA00041F28831884202D9032077E622E0374884
:103AB000006A00F002000028EFD012E0FFF7CCFB14
:103AC000054608E0FFF7C8FB401B41F288318842F9
:103AD00001D9032062E62D48006A00F002000028A8
:103AE000F0D1012F05D12948C06920F08050274925
:103AF000C86100BFE069C8B32448406800F00C000A
:103B0000082860D0E069022848D1002020490866D2
:103B1000FFF7A2FB054606E0FFF79EFB401B0228CD
:103B200001D903203AE61948006800F00070002827
:103B3000F2D1206AB0F5803F07D11448406820F4E4
:103B40000030A168084311494860D4E908010843DE
:103B50000E49496821F4741108430C49486001205A
:103B60000B490866FFF778FB054607E03DE0FFF7E5
:103B700073FB401B022801D903200FE603480068AD
:103B800000F000700028F2D02FE00000001002408A
:103B9000000042428004424200700040002014496C
:103BA0000866FFF759FB054606E0FFF755FB401B8B
:103BB000022801D90320F1E50E48006800F00070EA
:103BC0000028F2D111E0E069012800D1E6E50948BA
:103BD000466806F48031206A814204D106F47011EF
:103BE000606A814201D00120D8E50020D6E50000BE
:103BF000000042420010024070B504462546681E8F
:103C0000B0F1807F01D301200FE0681E4FF0E0216A
:103C100048610F214FF0FF3000F020FB00204FF0F3
:103C2000E021886107200861002070BD10B50446BE
:103C30000CB9012010BDA06900B100E000BF94F8EC
:103C40003D0028B9002084F83C00204600F028F808
:103C5000242084F83D002068C06820F400502168CA
:103C6000C860204600F028FA2068006920F49040DF
:103C7000216808612068406920F02A0021684861B5
:103C80002068C06840F400502168C86000202064AB
:103C9000202084F83D0084F83E000020CAE70000A0
:103CA00010B586B004460020029003900490059061
:103CB0003349206888422FD100BF3248806940F4E0
:103CC0008040304988610846806900F48040019056
:103CD00000BF00BF00BF0846806940F00400886153
:103CE0000846806900F00400019000BF00BF48153D
:103CF0000290022003900320059002A92248FFF7BA
:103D00001BF94FF48060029000200390049002A9F8
:103D10001D48FFF711F931E01C49206888422DD178
:103D200000BF1848C06940F400301649C861084611
:103D3000C06900F40030019000BF00BF00BF08461A
:103D4000806940F0040088610846806900F0040042
:103D5000019000BF00BF04200290022003900320C6
:103D6000059002A90848FFF7E7F808200290002014
:103D70000390049002A90448FFF7DEF806B010BDD6
:103D8000003801400010024000080140004400409B
:103D90002DE9F84F04460E46174699464FF0000AA3
:103DA00094F83E0020285FD106B117B90120BDE884
:103DB000F88F00BF94F83C00012801D10220F6E7FB
:103DC000012084F83C0000BF00202064222084F8F9
:103DD0003E0000202063FFF73FFA8246A785E78573
:103DE000A068B0F5805F04D1206910B90025B04605
:103DF00002E035464FF0000800BF002084F83C0088
:103E000000BF29E05346002220212046CDF8009033
:103E100000F0D0F908B10320C9E745B9206840682F
:103E2000C0F30800A8F8000008F1020811E0A0683B
:103E3000B0F5805F03D0A06828B9206918B9206860
:103E40004068287004E02068406800F07F00287017
:103E50006D1CE08D401EE085E08D0028D2D1202031
:103E600084F83E000020A2E70220A0E72DE9F84FE9
:103E700004460E46174699464FF0000A94F83D0056
:103E800020285AD106B117B90120BDE8F88F00BF2C
:103E900094F83C00012801D10220F6E7012084F8C3
:103EA0003C0000BF00202064212084F83D00FFF783
:103EB000D3F98246A784E784A068B0F5805F04D177
:103EC000206910B90025B04602E035464FF00008E1
:103ED00000BF002084F83C0000BF1BE053460022D6
:103EE00080212046CDF8009000F064F908B103204D
:103EF000CBE745B9B8F80000C0F308002168486076
:103F000008F1020803E02878216848606D1CE08C05
:103F1000401EE084E08C0028E0D15346002240217E
:103F20002046CDF8009000F045F908B10320ACE739
:103F3000202084F83D000020A7E70220A5E700BF6D
:103F4000FEE7000010B50548054908600846FEF781
:103F500033FE08B1FEF7D2FB10BD00000030024076
:103F60000000002008B500BF0D48806940F0200027
:103F70000B4988610846806900F02000009000BF6E
:103F800000BF00BF0846806940F004008861084611
:103F9000806900F00400009000BF00BF08BD000071
:103FA0000010024010B50B480B4908604FF4E13097
:103FB0004860002108488160C16001610C214161B5
:103FC00000218161C161FFF731FE08B1FEF796FB68
:103FD00010BD0000003801402400002010B50B483F
:103FE0000B4908604FF4E1304860002108488160C7
:103FF000C16001610C21416100218161C161FFF754
:1040000015FE08B1FEF77AFB10BD00000044004029
:104010006800002000BFFEE700BFFEE77047000019
:1040200008B508490968C9084FF47A72B1FBF2F182
:104030004143009100BF00BF00994A1E0092002931
:10404000F9D108BD14000020704710B5FFF70AF938
:1040500010BD00B58FB0282105A8FCF753F9142135
:104060006846FCF74FF901200590000406900020F7
:104070000C9005A8FFF78EFB08B1FEF73FFB0F2061
:1040800000900120019000200290039004900021F4
:104090006846FFF7C1F908B1FEF730FB0FB000BD6D
:1040A0007047000008B50348006800900098401C65
:1040B000009008BD08ED00E070B50446216809696C
:1040C00021F44051E2681143226811612269A1681C
:1040D0001143626941EA02052168C96841F20C6234
:1040E000914329432268D1602168496921F44071D4
:1040F000A2691143226851612D4A2168914202D17F
:10410000FFF7EEFA01E0FFF7DBFA00EBC00101EB8D
:10411000001162689200B1FBF2F100EBC00202EB09
:10412000001263689B00B2FBF3F26423B2FBF3F26C
:1041300002EBC20303EB0212A1EB8201322202EB7B
:1041400001116422B1FBF2F101F0F00100EBC002B9
:1041500002EB001263689B00B2FBF3F26423B2FB34
:10416000F3F201EB021200EBC00101EB00116368F6
:104170009B00B1FBF3F100EBC00303EB0013666897
:10418000B600B3FBF6F36426B3FBF6F303EBC3060A
:1041900006EB0313A1EB8301322303EB011164232C
:1041A000B1FBF3F101F00F0111442268916070BD81
:1041B000003801402DE9F04104460D461746984667
:1041C000069E21E0701CF8B12EB1FFF745F8A0EB78
:1041D0000800B04218D92068C06820F4D070216867
:1041E000C8602068406920F00100216848612020F3
:1041F00084F83D0084F83E0000BF002084F83C00B5
:1042000000BF0320BDE8F081206800682840A84274
:1042100001D1012000E00020B842D3D00020F1E716
:1042200000BFFEE7490050EAC12018BF04204A0D34
:1042300018BF40F0010040F2FF72B2EB515F08BFBF
:1042400040F00200012808BF0520704702480068BE
:10425000C0F30220704700000CED00E010B500280C
:1042600004DB0A07130E054A135406E00A07140E6E
:10427000034A00F00F031B1FD45410BD00E400E0FC
:1042800018ED00E030380A2801D2012070470020E4
:1042900070470000FEF7F2FFFFF7DBFEFFF762FE5C
:1042A000FFF750FEFFF77EFEFFF798FE03A0FEF734
:1042B000D5F801E0FEF71AF9FCE70000424C205364
:1042C000544152540D0A000010B500290AD0087854
:1042D000002807D005487844FDF75AF8002801D097
:1042E000002010BD0248784410BD00000E020000FE
:1042F0000602000010B500290AD00878002807D06F
:1043000005487844FDF744F8002801D0002010BD8E
:104310000248784410BD0000FE010000F6010000D4
:10432000FCF743BCFCF778BD000000000000000073
:10433000010203040607080900000000010203044B
:1043400000000000000000003031323334353637D1
:1043500038394142434445464030580030313233C9
:1043600034353637383961626364656640307800C9
:10437000040000080000000000000002000100002E
:104380001030313233343536373839616263646521
:10439000667870003031323334353637383941423F
:1043A000434445465850000002400000000000A071
:1043B0000000000005400000000000C800000000F0
:1043C0000C4000000000409C00000000194000006C
:1043D0000020BCBE0000000034400000BFC91B8E9E
:1043E00000000004B5400000504BCFD06607E2CF7C
:1043F000010000006C4100003E8251AADFEEA734AC
:1044000001000000D9420000DCB5A0E23A301F975D
:10441000FFFFFFFFB4450000FD25A0C8E9A3C14F81
:10442000FFFFFFFFFF3F00000000008000000000D2
:10443000FF3F000000000080000000004368616E44
:10444000676520726561642070726F74656374695A
:104450006F6E206F6E20646966666572656E74208B
:10446000736563746F7273206F662074686520755E
:1044700073657220666C617368200D0A000000008D
:10448000456E61626C6520726561642F7772697434
:10449000652070726F74656374206F6E2064696646
:1044A000666572656E7420736563746F7273206FD6
:1044B0006620746865207573657220666C61736828
:1044C000200D0A0010460008000000202400000013
:1044D000280100083446000824000020D40700000A
:1044E000440100081C00000043000000F8FFFFFF2B
:1044F0000C0000000E0000000F0000002E00000065
:104500001001000043000000F8FFFFFF00404040A2
:104510004040404040404141414141404040404096
:104520004040404040404040404040404005020242
:104530000202020202020202020202020220202001
:10454000202020202020200202020202020290905D
:10455000909090901010101010101010101010105B
:1045600010101010101010100202020202028888AF
:1045700088888888080808080808080808080808BB
:1045800008080808080808080202020240000000A3
:10459000000000000000000000000000000000001B
:1045A000000000000000000000000000000000000B
:1045B00000000000000000000000000000000000FB
:1045C00000000000000000000000000000000000EB
:1045D00000000000000000000000000000000000DB
:1045E00000000000000000000000000000000000CB
:1045F00000000000000000000000000000000000BB
:1046000000000000000000000000000000000000AA
:10461000000000000000000000000000100000008A
:10462000010000000024F4001011121314151617D5
:044630001819202114
:04000005080000ED02
:00000001FF
